:020000040000FA
:04000000D2EF38F013
:106FB4005150120050501200296E29C051F0120095
:106FC400080ED56ED58E1200010E836E8150FF0A15
:106FD400120048C029F049C02AF012004AC029F022
:106FE4004BC02AF012002BC048F02CC049F012000C
:106FF400296E2950030B506E12002BC04AF02CC08E
:107004004BF012009368000E956EF19E0D0EC16E4A
:10701400120004EC38F0000E4F6E000E4E6E12009B
:10702400F2A417EF38F019EF38F012EF38F012002D
:1070340094929494030ECA12CA840C0EBD120C0EC0
:10704400BA1212002A6E848484902AC083FF848238
:10705400849284942FEC38F01200000E296E292AB1
:10706400090E296438EF38F03AEF38F031EF38F090
:107074001200000E2A6E2FEC38F02A2A310E2A64F0
:1070840046EF38F048EF38F03DEF38F01200000ECC
:10709400516E030E4B6EE80E4A6E020E496E000EE0
:1070A400486E020E476E000E466E1200D8902B34C6
:1070B4002D6E2C342E6E2D1E2E1E0E0E2D5E000EE9
:1070C4002E5A2E50D76E2DC0D6FFF2941200480EC1
:1070D400296EE80E2A6E010E2B6E000E2C6E37C040
:1070E4002DF038C02EF02F6A306A4EEC3CF02904A3
:1070F400CB6E120029502B02F3CF2DF0F4CF2EF0DB
:1071040029502C02F3502E262A502B02F3502E26FF
:107114002DC029F02EC02AF012006D7FA07F8F7F32
:10712400E47F7E7F297F3A7FC27F4B7FE57E187F95
:10713400D37F5C7FF67E077FB17F907E5D7E6E7E1F
:107144007F7E2B6E849484902BC083FF84828492F0
:107154002BA2AFEF38F0B1EF38F0B5EF38F03BECDD
:1071640038F0B7EF38F02FEC38F0120062EC39F059
:10717400E2EC37F049EC38F00BEC38F01AEC38F06C
:10718400F0EC37F029C02BF02AC02CF058EC38F082
:10719400D4EC3CF012EC38F0C2EF38F000EF00F021
:1071A4001E0EF66E710EF76E000EF86E00EE01F014
:1071B40010EE28F00900F5CFEEFFE550E150FAE1BA
:1071C40000EE46F0120EEE6AE806FDE1000EF86EDF
:1071D4000001B8EF38F0010EC26EC282C2B2F5EF00
:1071E40038F0F7EF38F0F0EF38F0C4CF2EF02F6A14
:1071F4002E502F6E2E6AC3502E26000E2F222EC024
:107204002BF02FC02CF0060E2D6ED8902C322B3282
:107214002D2E07EF39F02BC029F02CC02AF01200D4
:10722400050EC26EC282C2B21AEF39F01CEF39F0F9
:1072340015EF39F0C4CF2EF02F6A2E502F6E2E6A20
:10724400C3502E26000E2F222EC02BF02FC02CF060
:10725400060E2D6ED8902C322B322D2E2CEF39F0B9
:107264002BC029F02CC02AF01200000E306E000E44
:107274002F6E4DEF39F02F502B242D6E30502C20D3
:107284002E6E2DC0F6FF2EC0F7FF0800F55024EC3B
:1072940038F02F4A302A2F502B242D6E30502C20BA
:1072A4002E6E2DC0F6FF2EC0F7FF0800F550000922
:1072B400D8A45FEF39F061EF39F03DEF39F01200F7
:1072C4003BEC38F03BEC38F03BEC38F03BEC38F07E
:1072D4003BEC38F03BEC38F0969496929690000E86
:1072E400956E0E0EC16E380EA3EC38F03BEC38F000
:1072F400380EA3EC38F03BEC38F0380EA3EC38F041
:107304003BEC38F00C0EA3EC38F0060EA3EC38F08E
:10731400030EA3EC38F0010EA3EC38F01200326E29
:10732400010ECB24296E2A6A000E2A2232C02BF0C9
:107334002C6A7CEC38F029C033F02AC034F033C016
:1073440029F034C02AF0000E2C6E190E2B6EC7ECF7
:1073540039F029C033F02AC034F0FF0E3316030E7F
:10736400341633C030F034C031F0D890313230327A
:10737400D890313230323050BE6E33C030F0030E0C
:1073840030163038F00BBD121200000E2E6E000EB7
:107394002D6E2B502C10D8B4D2EF39F0D4EF39F035
:1073A400FCEF39F0010E2F6EDCEF39F0D8902B365C
:1073B4002C362F2A2CAEE1EF39F0E3EF39F0D8EF79
:1073C40039F0D8902D362E362B50295C2C502A5863
:1073D400D8A0EFEF39F0F1EF39F0F6EF39F02B5098
:1073E400295E2C502A5A2D80D8902C322B322F2EE5
:1073F400E3EF39F02DC029F02EC02AF01200000E60
:107404002D6E050E2C6EE6EC37F02B6E2B502E6E87
:107414002F6A4E502E1809E14F502F18D8B415EF8B
:107424003AF017EF3AF038EF3AF02EA01CEF3AF0AA
:107434001EEF3AF022EF3AF0000E2D6E030E2C6E82
:107444002EA227EF3AF029EF3AF02DEF3AF0000E92
:107454002D6E020E2C6E2EA432EF3AF034EF3AF079
:1074640038EF3AF0000E2D6E040E2C6E2EC04EF046
:107474002FC04FF02CC029F02DC02AF01200000EAE
:10748400366E32BE4AEF3AF048EF3AF050EF3AF037
:10749400316C321ED8B0322A010E366E34BE57EF2C
:1074A4003AF055EF3AF05BEF3AF0336C341ED8B053
:1074B400342A33503410D8B462EF3AF064EF3AF01F
:1074C40088EF3AF0010E356E6CEF3AF0D89033360F
:1074D4003436352A34AE71EF3AF073EF3AF068EF90
:1074E4003AF03350315C34503258D8A07CEF3AF043
:1074F4007EEF3AF082EF3AF03350315E3450325A34
:10750400D89034323332352E73EF3AF03650D8B443
:107514008EEF3AF090EF3AF094EF3AF0316C321E7D
:10752400D8B0322A31C031F032C032F01200000E2D
:107534002E6E2CBEA2EF3AF0A0EF3AF0A8EF3AF08C
:107544002B6C2C1ED8B02C2A010E2E6E2ABEAFEF47
:107554003AF0ADEF3AF0B5EF3AF0296C2A1ED8B004
:107564002A2A010E2E1A000E306E000E2F6E2B509A
:107574002C10D8B4C0EF3AF0C2EF3AF0EAEF3AF088
:10758400010E2D6ECAEF3AF0D8902B362C362D2AE8
:107594002CAECFEF3AF0D1EF3AF0C6EF3AF0D890F4
:1075A4002F3630362B50295C2C502A58D8A0DDEFCA
:1075B4003AF0DFEF3AF0E4EF3AF02B50295E2C502A
:1075C4002A5A2F80D8902C322B322D2ED1EF3AF01C
:1075D4002E50D8B4F0EF3AF0F2EF3AF0F6EF3AF07A
:1075E4002F6C301ED8B0302A2FC029F030C02AF0BA
:1075F400120038BE02EF3BF000EF3BF009EF3BF026
:10760400376C381ED8B0382A2D0E24EC38F0030E0F
:107614002C6EE80E2B6E37C029F038C02AF099EC96
:107624003AF029C031F02AC032F0000E346E0A0E4E
:10763400336E41EC3AF03150300F24EC38F0000E48
:107644002C6E640E2B6E37C029F038C02AF099ECEA
:107654003AF029C031F02AC032F0000E346E0A0E1E
:10766400336E41EC3AF03150300F24EC38F0000E18
:107674002C6E0A0E2B6E37C029F038C02AF099EC14
:107684003AF029C031F02AC032F0000E346E0A0EEE
:10769400336E41EC3AF03150300F24EC38F037C0FF
:1076A40031F038C032F0000E346E0A0E336E41EC05
:1076B4003AF03150300F24EC38F01200EDEC38F091
:1076C40029C039F02AC03AF0EBEC37F02950395C84
:1076D4003A50800A3B6E2A50800A3B58D8A075EF76
:1076E4003BF077EF3BF08EEF3BF0EBEC37F029C04B
:1076F40039F02AC03AF012EC39F02950395C3A508A
:10770400800A3B6E2A50800A3B58D8B08CEF3BF07D
:107714008EEF3BF0BCEF3BF0EBEC37F029C039F0D7
:107724002AC03AF0EDEC38F02950395C3A50800A1E
:107734003B6E2A50800A3B58D8A0A3EF3BF0A5EF3C
:107744003BF0C7EF3BF012EC39F029C039F02AC006
:107754003AF0EBEC37F02950395C3A50800A3B6E32
:107764002A50800A3B58D8A0BAEF3BF0BCEF3BF05C
:10777400C7EF3BF0640E91EC39F0030E386EE80E5F
:10778400376E69EC38F0D0EF3BF0000E91EC39F035
:10779400000E386E000E376E69EC38F0120038BEF9
:1077A400D8EF3BF0D6EF3BF0DFEF3BF0376C381E01
:1077B400D8B0382A2D0E24EC38F0270E2C6E100E7B
:1077C4002B6E37C029F038C02AF099EC3AF029C062
:1077D40031F02AC032F0000E346E0A0E336E41ECE2
:1077E4003AF03150300F24EC38F0030E2C6EE80ED2
:1077F4002B6E37C029F038C02AF099EC3AF029C032
:1078040031F02AC032F0000E346E0A0E336E41ECB1
:107814003AF03150300F24EC38F0000E2C6E640E28
:107824002B6E37C029F038C02AF099EC3AF029C001
:1078340031F02AC032F0000E346E0A0E336E41EC81
:107844003AF03150300F24EC38F0000E2C6E0A0E52
:107854002B6E37C029F038C02AF099EC3AF029C0D1
:1078640031F02AC032F0000E346E0A0E336E41EC51
:107874003AF03150300F24EC38F037C031F038C0D2
:1078840032F0000E346E0A0E336E41EC3AF0315091
:10789400300F24EC38F01200000E326E30BE57EF79
:1078A4003CF055EF3CF061EF3CF0301E2F1E2E1ED5
:1078B4002D6C000E2E222F223022010E326E2CBE91
:1078C40068EF3CF066EF3CF072EF3CF02C1E2B1E90
:1078D4002A1E296C000E2A222B222C22010E321A77
:1078E400000E336E000E346E000E356E000E366ED2
:1078F4002D502E102F103010D8B483EF3CF085EFAC
:107904003CF0BBEF3CF0010E316E8FEF3CF0D890B1
:107914002D362E362F363036312A30AE94EF3CF0E9
:1079240096EF3CF089EF3CF0D89033363436353658
:1079340036362D50295C2E502A582F502B58305053
:107944002C58D8A0A8EF3CF0AAEF3CF0B3EF3CF0E1
:107954002D50295E2E502A5A2F502B5A30502C5A13
:107964003380D89030322F322E322D32312E96EF92
:107974003CF03250D8B4C1EF3CF0C3EF3CF0CBEF55
:107984003CF0361E351E341E336C000E3422352274
:10799400362233C029F034C02AF035C02BF036C06B
:1079A4002CF0120001EC3AF02950456EA2EF3DF0A4
:1079B400030E4518D8A4E1EF3CF0E3EF3CF0EDEF03
:1079C4003CF0EBEC37F0010E29242B6E000E2A203C
:1079D4002C6EF5EC37F0020E4518D8A4F4EF3CF009
:1079E400F6EF3CF000EF3DF0EBEC37F0FF0E29240E
:1079F4002B6EFF0E2A202C6EF5EC37F0040E451882
:107A0400D8A407EF3DF009EF3DF0C4EF3DF0020EBE
:107A1400DEEC37F0C4EF3DF0040E4518D8A415EFA2
:107A24003DF017EF3DF0C4EF3DF0030EDEEC37F010
:107A3400C4EF3DF0030E4518D8A423EF3DF025EF25
:107A44003DF02FEF3DF0F0EC37F0010E29242B6EC2
:107A5400000E2A202C6EFFEC37F0020E4518D8A435
:107A640036EF3DF038EF3DF042EF3DF0F0EC37F00B
:107A7400FF0E29242B6EFF0E2A202C6EFFEC37F00C
:107A8400040E4518D8A449EF3DF04BEF3DF0C4EF88
:107A94003DF0000EDEEC37F0C4EF3DF0030E451868
:107AA400D8A457EF3DF059EF3DF05FEF3DF0DCEC2B
:107AB40037F0416E4128FAEC37F0020E4518D8A48D
:107AC40066EF3DF068EF3DF06EEF3DF0DCEC37F033
:107AD400416E4104FAEC37F0040E4518D8A475EF52
:107AE4003DF077EF3DF0C4EF3DF0010EDEEC37F0F2
:107AF400C4EF3DF0030E4518D8A483EF3DF085EFA5
:107B04003DF088EF3DF0010EDEEC37F0020E451833
:107B1400D8A48FEF3DF091EF3DF094EF3DF0010ECE
:107B2400DEEC37F0040E4518D8A49BEF3DF09DEF32
:107B34003DF0C4EF3DF0010EDEEC37F0C4EF3DF054
:107B4400DAEC37F0416E426A4250000AD8B4ADEF25
:107B54003DF0C4EF3DF04150000AD8B450EF3DF081
:107B6400010AD8B4DAEF3CF0030AD8B40EEF3DF0C2
:107B7400010AD8B41CEF3DF0070AD8B47CEF3DF0FD
:107B8400C4EF3DF060EC3BF0DCEC37F0416E41506B
:107B9400436E446ADAEC37F0416E4150396E3A6A0A
:107BA40043C03BF044C03CF0D9EC3DF01200030E5E
:107BB40039183A10D8A4E1EF3DF0E3EF3DF01BEFA4
:107BC4003EF0800EA3EC38F039C03DF03AC03EF0F0
:107BD400D8903D363E36D8903D363E36D8903D3628
:107BE4003E36010E3F6E000E406E3D503F263E5025
:107BF4004022D8903B34D96E3C34DA6E3F50D926BB
:107C04004050DA22DECF2BF0DDCF2CF037EC39F008
:107C1400C00EA3EC38F0F0EC37F029C037F02AC0DE
:107C240038F0D1EC3BF0620E2B6E7E0E2C6E37ECEE
:107C340039F039043A10D8A422EF3EF024EF3EF094
:107C44005CEF3EF0800EA3EC38F039C03DF03AC052
:107C54003EF0D8903D363E36D8903D363E36D890EC
:107C64003D363E36010E3F6E000E406E3D503F26BF
:107C74003E504022D8903B34D96E3C34DA6E3F50AB
:107C8400D9264050DA22DECF2BF0DDCF2CF037ECB2
:107C940039F0C00EA3EC38F0EBEC37F029C037F024
:107CA4002AC038F0D1EC3BF0620E2B6E7E0E2C6EA7
:107CB40037EC39F0020E39183A10D8A464EF3EF0CC
:107CC40066EF3EF0B2EF3EF0800EA3EC38F039C020
:107CD4003DF03AC03EF0D8903D363E36D8903D3621
:107CE4003E36D8903D363E36010E3F6E000E406E55
:107CF4003D503F263E504022D8903B34D96E3C3410
:107D0400DA6E3F50D9264050DA22DECF2BF0DDCF99
:107D14002CF037EC39F0C00EA3EC38F0FA0E2B6ED1
:107D24007F0E2C6E37EC39F0EDEC38F029C037F0CB
:107D34002AC038F0FBEC3AF0F50E2B6E7F0E2C6E59
:107D440037EC39F012EC39F029C037F02AC038F09A
:107D5400FBEC3AF0620E2B6E7E0E2C6E37EC39F093
:107D640039503A10D8A4B9EF3EF0BBEF3EF025EFFE
:107D74003FF0800EA3EC38F039C03DF03AC03EF03D
:107D8400D8903D363E36D8903D363E36D8903D3676
:107D94003E36010E3F6E000E406E3D503F263E5073
:107DA4004022D8903B34D96E3C34DA6E3F50D92609
:107DB4004050DA22DECF2BF0DDCF2CF037EC39F057
:107DC400C00EA3EC38F0DCEC37F00009D8A4EDEFDA
:107DD4003EF0EFEF3EF0F5EF3EF0D40E2B6E7E0E4C
:107DE4002C6E37EC39F0DCEC37F0E806D8A4FDEF64
:107DF4003EF0FFEF3EF005EF3FF0A10E2B6E7E0E3E
:107E04002C6E37EC39F0DCEC37F0020AD8A40DEF15
:107E14003FF00FEF3FF015EF3FF0B20E2B6E7E0EEA
:107E24002C6E37EC39F0DCEC37F0030AD8A41DEFE4
:107E34003FF01FEF3FF025EF3FF0C30E2B6E7E0E99
:107E44002C6E37EC39F01200003F065B4F666D7DF7
:107E5400077F6F777C395E797154696D65202020C6
:107E6400202020202020202020005A656974202012
:107E740020202020202020202020004865757265C5
:107E8400202020202020202020202000486F726104
:107E940073202020202020202020202000456E67F1
:107EA4006C69736820202020202020202000446555
:107EB40075747363686520202020202020200046EC
:107EC40072616E63616973202020202020202000CD
:107ED400506F7274756775657320202020202020F0
:107EE40000466C61672076616C7565202020202037
:107EF40020004368616E67652074696D65202020E9
:107F04002020005A65697420616E6465726E2020B9
:107F140020202000466C616767656E776572742067
:107F240020202020004368616E676520616C6172C7
:107F34006D2020202000416C61726D20616E6465AB
:107F4400726E202020200056616C6F7220646120C4
:107F5400666C616720202000416C74657261722038
:107F640074656D706F20202000416C7465726172BD
:107F7400206964696F6D61202000416C74657261D1
:107F84007220616C61726D652020005370726163B0
:107F9400686520616E6465726E2020004368616EBE
:107FA4006765206C616E6775616765200043686171
:107FB4006E676572206C652074656D70200043687F
:107FC400616E676572204420616C61726D65005654
:107FD400616C657572206475207369676E616C00ED
:107FE4004368616E676572206C61206C616E6775B1
:0B7FF40000205032200050312000001F
:020000040020DA
:08000000FFFFFFFFFFFFFFFF00
:020000040030CA
:0E000000FF021F00FF8381FF0FC00FE00F40C3
:00000001FF
